:020000041000EA
:1000000000B5324B212058609868022188439860DF
:10001000D860186158612E4B002199600221596106
:100020000121F02299502B49196001219960352056
:1000300000F044F80222904214D00621196600F024
:1000400034F8196E01211966002018661A6600F04E
:100050002CF8196E196E196E052000F02FF8012189
:100060000842F9D1002199601B49196000215960AB
:100070001A491B48016001219960EB211966A021F2
:10008000196600F012F800219960164914480160C1
:100090000121996001BC002800D000471248134993
:1000A000086003C880F30888084703B5996A0420EC
:1000B0000142FBD001200142F8D103BD02B5186610
:1000C0001866FFF7F2FF186E186E02BD00000240BE
:1000D000000000180000070000035F00212200005C
:1000E000F4000018222000A00001001008ED00E03C
:1000F00000000000000000000000000074B24E7A12
:1001000000200420F7010010C3010010C5010010F9
:10011000C1010010C1010010C1010010C101001097
:10012000C1010010C1010010C1010010C701001081
:10013000C1010010C1010010C9010010CB01001065
:10014000CD010010CD010010CD010010CD01001037
:10015000CD010010CD010010CD010010CD01001027
:10016000CD010010CD010010CD010010CD01001017
:10017000CD010010CD010010CD010010CD01001007
:10018000CD010010CD010010CD010010CD010010F7
:10019000CD010010CD010010CD010010CD010010E7
:1001A000CD010010CD010010CD010010CD010010D7
:1001B000CD010010CD010010CD010010CD010010C7
:1001C00000BE00BE00BE00BE00BE00BEEFF3058054
:1001D000103800BEF2EB88716899001090990010F9
:1001E0003402001090A31AE700201F49086006C8D7
:1001F00081F3088810471D48006800282FD10DA4FE
:100200000ECC002902D000F012F8F9E71849194A7B
:10021000002000E001C19142FCD1174988471749ED
:1002200088471749884700BEFDE701C901C29A42C5
:10023000FBD3704790990010C000002010180020D8
:10024000E0B000100000042000000420E0B0001026
:10025000001004200010042000000000704709482E
:1002600001F088FE0047000008ED00E0000000D02B
:100270001018002008260020B91D0010550300109A
:10028000E11E00105756000006005250ABB36053F9
:10029000DC6A001006005250861C0302EC6A001053
:1002A000060052505422A29DF46A001005005250DC
:1002B000DE65F468E0B00010F8B5C0460448054BB0
:1002C00010B5834203D0044B002B00D0984710BDDB
:1002D00010180020101800200000000006480749F0
:1002E000091A8B10C90FC91810B5491003D0044B57
:1002F000002B00D0984710BD1018002010180020C7
:100300000000000010B5074C2378002B09D1FFF73F
:10031000D5FF054B002B02D0044800E000BF0123AD
:10032000237010BD1819002000000000386A00106A
:10033000054B10B5002B03D00449054800E000BF71
:10034000FFF7CCFF10BDC046000000001C190020C4
:10035000386A001010B504F03BFC002010BDC04608
:10036000094A830094464022634410B51C68C000CB
:100370006240C02414408022520113431C60034B8E
:100380009C466044416010BD04C0014000400140F3
:100390000A4B80009C4604236044002901D00C23B2
:1003A0000821002A00D10B00026853400C221A4099
:1003B00080235B01184302607047C04604C00140BF
:1003C0000123D0228340120693629361094A83007D
:1003D0009446402263441968C0004A40C02111403D
:1003E0008022520113431960034B9C46052360444D
:1003F0004360704704C0014000400140024B186850
:100400008007C00F7047C04600C00640F8B5EFF344
:10041000108772B60E4E3368002BFCD0BFF35F8F8F
:10042000CB08C4180725A446C45C01230D40AB408B
:1004300018002040234208D1624623431370BFF3C3
:100440005F8F306087F31088F8BD100001F04CFD1D
:100450002C0100D0F8B5CE4647468C4680B5EFF368
:10046000108872B6214D2C68002CFCD0BFF35F8F32
:100470009A422CD8D4080721055D061901241140A1
:100480008C402C421FD007218946063909E0D40848
:10049000055D06194C460F001440A7403C002F4252
:1004A00011D001329342F2D201204042BFF35F8F5C
:1004B00000220E4B1A6088F3108800280FDB0CBC5A
:1004C00090469946F8BD2C4310003470EEE7BFF318
:1004D0005F8F00232B6088F3108801204042634621
:1004E000002BECD0089801F0FFFCC0462C0100D096
:1004F0000021044B044ABFF35F8F02C39342FAD139
:100500007047C046000100D0800100D0044A107836
:10051000431CDBB2172B00D9102313707047C04661
:10052000A80E002000B5054B83B0010000931822EF
:100530001F230348FFF78EFF03B000BD386A001089
:100540000C1E002001238340002904D0034A1360BD
:10055000034A13607047034A1360FBE780E200E040
:1005600000E100E080E100E001238340014A1360E4
:100570007047C04600E200E0084B10309B688000E6
:10058000C358002B07D0064A00209B1A2F229A42FC
:100590004041C0B270470020FCE7C04600ED00E0DB
:1005A000AC0E0020024B10309B688000C058704792
:1005B00000ED00E070B50D00EFF3108672B60F4A43
:1005C0001368002BFCD0BFF35F8F0D4B10309B687E
:1005D00084001B590B4A934203D09D4201D001F085
:1005E0009BFC074B9B681D51BFF35F8FBFF35F8F71
:1005F0000022024B1A6086F3108870BD240100D0DF
:1006000000ED00E0CD010010F0B557464E464546DE
:10061000DE46E0B5894683B005001700EFF3108A87
:1006200072B65D4A1368002BFCD0BFF35F8F0020C9
:100630005A4B18569B4600286CDB5A464400584ECD
:100640002418A400331998469B7910351370554B24
:10065000AA009B6801929B589C469B1B2F2B28D875
:10066000012261469143CB79BB4208D86AE053002E
:100670009B189B00F318DD79BD4251D91900062261
:100680008A56002AF3DA0B1D9B46474E43465C46CA
:10069000043B1B1B1B05454C5B0D23438B80887162
:1006A00041468A714A46424B8E800B60CF718A6008
:1006B0001BE0404B9C4542D142463F4B02341380E5
:1006C0003E4B3619043B9E1B3605384B760D1E43B8
:1006D0003B4B56809380FF23D771937143464A4624
:1006E0009A60012342461A43944661462D4B019A73
:1006F0009B689950BFF35F8FBFF35F8F0022264B3B
:100700001A608AF3108803B03CBC90469946A24612
:10071000AB46F0BD01F000FC5B46002018568CE7AC
:100720000B1D9B468B8804345B051B155B443619F7
:100730009E1BE0233605760D1B021E43A6E701F043
:10074000EBFBB9E745460B001E489B1B5B4158433A
:10075000000D194B2B80A31C9C46B4446546174BD7
:100760000434043B5B1B1B05104D5B0DAC462B4357
:10077000454636196B800B1F9E1B6346A871484681
:100780003605760D1E430A4BAE80EF71A8600B60F4
:10079000434613439C46A8E7240100D015230020BC
:1007A000AC0E002000ED00E001BD000000E0FFFF06
:1007B00001488047CD01001000A1FFFFDC0E0020A2
:1007C00001BDFFFFAAAA0000F0B5DE4657464E461F
:1007D0004546E0B50C0083B0EFF3108972B6594A74
:1007E0001368002BFCD0BFF35F8F574B9A68030050
:1007F00010339F00D559554A9046954232D0A542B4
:1008000043D0534EAA1B2F2A2CD801228240924655
:100810005146504A12681140019151464E4A1160AA
:10082000BFF35F8FEFF305829346002A33D1012394
:100830002A009A4393689C4208D178E04B005B18E9
:100840009B00F3189968A1422AD01A00062151563C
:100850000029F3DA019B002B19D052463F4B1A6056
:100860003C4B1A60384B9B68DD51BFF35F8FBFF381
:100870005F8F0022334B1A6089F3108803B03CBCB1
:1008800090469946A246AB46F0BD1500EAE75246AF
:10089000314B1A60E6E79342C9D001F03DFBC6E751
:1008A00006215956002922DB4A00501880003418CE
:1008B0008046A0689860E079D8710620205698712B
:1008C000A0797F2824D8A488F01A6405241544440C
:1008D0000019E0240005400D24022043988052189E
:1008E0001F4B9200B6181A781970B271B2E75946C8
:1008F00000290FD1FF3191711A49918018490A7866
:100900009A71194A9B1B5B415A43120D0A70A1E769
:100910001648E3E7164A1749D21A083A5002400D22
:1009200001439980144952080A43DA8092E706216C
:10093000515613000029B7DA5A46002AEAD1454633
:10094000DCE7C046240100D000ED00E0CD0100103E
:10095000AC0E002000E100E080E100E080E200E079
:100960001523002001BDFFFFAAAA000001BD000061
:10097000E60E002000F0FFFF00F8FFFFF0B5EFF3F8
:10098000058101240443EFF3108672B6214A1368EF
:10099000002BFCD0BFF35F8F1F4B05001F4AED1AE1
:1009A0006D416A43120D1E4D8900AF6852B27F58E7
:1009B000A7421CD00621595691421CD012215956EB
:1009C000914222D01E215956914220D02A215956B7
:1009D0000324914210D0134B19781A708171BFF320
:1009E0005F8F00220B4B1A6086F31088F0BDAB6856
:1009F0000D4C5C50EFE700246100091989005B1879
:100A0000FF21997109499980E5E70124F4E702245F
:100A1000F2E7C046240100D0AC0E0020AAAA0000D4
:100A200000ED00E015230020CD01001001BDFFFF07
:100A3000054B064A1360064A136053609360D36007
:100A400013615361936170478080808000E400E00F
:100A500004E400E000B5074B83B0010000930022DE
:100A600005230548FFF7F6FC002801DB1F23181AB1
:100A700003B000BD546A00101A230020024B9C46AC
:100A800061448900016070474000003410B50400E3
:100A9000FFF73CFD01002000FFF7F0FFFF2323716B
:100AA000BFF35F8F10BDC04610B50400FFF72EFDE9
:100AB00001002000FFF7E2FFFF23A380BFF35F8F59
:100AC00010BDC04610B504000120FFF72BFD034BFD
:100AD000C3189B002360BFF35F8F10BD400000343C
:100AE000034B9C46614489000160BFF35F8F7047F0
:100AF0004000003483680B4810B58446614462446A
:100B0000090112019A18591854684B6801209C4237
:100B100001D802D00020C0B210BD12680B689A4202
:100B2000F9D8F7E7FFFFFF0F0A4B1968EFF31080C2
:100B300072B60A68002AFCD0BFF35F8F1B68BFF350
:100B40005F8F00221A6080F3108840BF00200021D0
:100B50007047C046E0220020F8B5574645464E464D
:100B6000DE46E0B599460CAB19780DAB1B78050055
:100B700090469A460768002912D1BE7B002E45D0C8
:100B800074003B68A419033C1B195A783100BA73EE
:100B9000002A00D1FA7300229A705A701A7003E08A
:100BA0000E004C006418033C2C4B00229C46AB68A2
:100BB00061449C464346090161440B604B464B60CF
:100BC0000A9B8B600B9BCB603B681B199A705A7019
:100BD0001A707B7B9B46002B2CD032005946B8689C
:100BE0007B6898473A68002817D05B4658465B00F8
:100BF0005B441419033BA070D118D35C002B00D0C8
:100C000063705B460E707B73B34514D030003CBC00
:100C100090469946A246AB46F8BD5B465B005B44F6
:100C2000033BD3189E701119125D002A00D05A7030
:100C30005B460B707E7342464B46287D00F09EFB60
:100C4000041E06D05346002B03D13100286800F063
:100C5000E3FD0E9B002BD9D01C70D7E7FFFFFF0FE1
:100C6000F0B5DE4657464E4645460023E0B58BB00C
:100C70000893664B8200D45800239B46099000F0ED
:100C80001DFB626806000F00EFF3108572B6136853
:100C9000002BFCD0BFF35F8F23689C465B7B99469B
:100CA000002B68D0A2685A4B90464B441B019844D5
:100CB00043461A685B6810001900801BB94100297F
:100CC00063DD099800F05AFB0023002298460023B8
:100CD0000692079300239A466368BFF35F8F5A46D4
:100CE0001A6085F310885346002B08D10028C6D11E
:100CF0000BB03CBC90469946A246AB46F0BD089B63
:100D0000414618024B461843D047626806000F0060
:100D1000EFF3108572B61368002BFCD0BFF35F8F22
:100D2000002F4FDB33003B4302D02369002B60D1FF
:100D30002368DA7B002A07D051008A1819688C468C
:100D400049466244033A51709A7B002A01D14A46CF
:100D50009A734A46DA734B46E168013BCA5C01323A
:100D6000CA545B4623616368BFF35F8F5A461A60BB
:100D700085F3108883E7002300229846002306921B
:100D80000793002300209A46A6E7002901D10028F6
:100D900097D10021604600F09DFC43461A685B68CD
:100DA0000692079343469B689A464346DB689846FB
:100DB000E3684B44013B1B7808931B020343236108
:100DC000002089E72369002BB2D0069A079B921B6B
:100DD000BB41002B15DB5946049101210391494683
:100DE000029141460191514620000091FFF7B4FE67
:100DF000B7E700F063FA32003B0012184B41002BBA
:100E0000E9DA0122034B5242E5E7C046C422002042
:100E1000FFFFFF0FFFFFFF7F10B5144C6368002B2F
:100E200004D00A211248FFF729FE10BD2300114A01
:100E30001021206800F068FB032000F033FA032043
:100E400000F00EFB03200C4900F052FAFFF75EFBA6
:100E50000A4B9C4603232375D0231B061B68604462
:100E60006375074B80006060DC60DAE7F40E0020F9
:100E7000E0220020F50A0010610C00104000003450
:100E8000C422002000487047F40E0020F0B55746F9
:100E90004546DE464E46E0B585B0019310AB1B7863
:100EA00000270393002380469A46009243465A68DF
:100EB000EFF3108972B61368002BFCD0BFF35F8F7D
:100EC00043461D68AC7B002C4FD066002B6836195A
:100ED000033E9B195A78AA73002A00D1EA7342464E
:100EE0009F705F701F7092684A4B94460099019AF8
:100EF000E3181B01634419605A600E9A9A600F9AB6
:100F0000DA602B689B199F705F701F706B7B9B462C
:100F1000002B46D022001900A8686B6898472A6801
:100F2000002831D05B4658465B005B449619033B72
:100F3000B070D118D35C002B00D073705B460C707E
:100F40006B735C452ED04346DB681B19013B187858
:100F500043465B68BFF35F8F1F6089F31088534679
:100F6000002B2ED10002204307E05B68BFF35F8FA8
:100F70001C6089F310880120404205B03CBC9046BB
:100F80009946A246AB46F0BD5B465B005B44033B23
:100F9000D3189C709119925D002A00D05A705B465C
:100FA0000B706C734346187D009A019B00F0E6F9C4
:100FB00082460028C7D043462100186800F02CFC68
:100FC000C1E7039B002B23D00E9B00200F9998476D
:100FD000030004000D000B431AD000290ADA009A1E
:100FE000019B121BAB4100920193002B0ADB039B78
:100FF0009A465BE700F062F924184D410094019590
:10100000002DF4DA0123044C5B4200930194EEE7D7
:101010000020B2E7FFFFFF0FFFFFFF7F70B54268C0
:101020000400EFF3108572B61368002BFCD0BFF3F9
:101030005F8F2068CAB2437B93420AD0FF230B40E4
:101040005E00F3180668B4466344033B9B78002BAC
:1010500013D0E668FF23B4460B406344013B090A02
:101060001E78C9B28E420DD000206368BFF35F8F37
:1010700000221A6085F3108870BD22698A42F3D17C
:101080002361F1E7110000F0C7FBEEE7407D7047F8
:10109000F0B504000D0006267642F717C64636194D
:1010A0006F4100B584B08F4214D811D000F006F91A
:1010B00032003B00121A8B41002B15DC002B3ED076
:1010C0002000290000F004F904B004BC9046F0BDF3
:1010D0008642EBD90026002700F0F0F832003B00F2
:1010E000121A8B41002BE9DD002302930193154B6B
:1010F0003200009314483B00FFF7C8FE0028DFDBF6
:1011000000239846BC46114A114F7B6A9C4504D87F
:10111000B96A8E42D4D99C45D2D11168EFF31080C0
:1011200072B60B68002BFCD0BFF35F8F1368BFF360
:101130005F8F4146196080F3108820BFE5E7002AE1
:10114000BED0D1E7290B0010F40E0020E0220020D1
:101150000040054070B5060000F0B0F8FA22040027
:101160000D00002330000021920000F0CDFF001997
:101170006941002902DBFFF78BFF70BD01200149A7
:101180004042F8E7FFFFFF7F70B5EFF305830500EE
:101190000C0084B0002B0FD0104B0020596A8C42F9
:1011A00003D89B6A0130AB4201D304B070BD641A0E
:1011B000611E8C41E0B2F8E7094E02930193094B9E
:1011C0000200009330000B00FFF760FE011EE3DD1C
:1011D00020BF3000FFF722FFDEE7C0460040054099
:1011E000F40E0020290B0010F0B5EFF30582D6466F
:1011F0004F4646461000C0B51038EFF3108872B65F
:10120000214C2368002BFCD0BFF35F8F0123190012
:1012100081401E4D1F006963AA461D4D29601D4D6A
:101220002E78AC463500C5402F402B4215D0534692
:10123000194D5F6A83005D59AF4218D3174A8E4338
:101240009B5862461670BFF35F8F0022226088F3BE
:101250001088002B06D0984704E0BFF35F8F27600B
:1012600088F310881CBC90469946A246F0BD0C4BF2
:1012700092009C46624413681360BFF35F8F0023A3
:10128000236088F31088EDE7280100D00040054076
:101290003C70054019230020EC220020EC1C0020AB
:1012A000D03F054010B50100024A0348FFF7AEF8F1
:1012B00010BDC046706A001014230020034B596A09
:1012C0000A00986A596A8A42FAD17047004005407C
:1012D000064A536A9942FCD807D1044B02E05A6A85
:1012E000914202D19A6A8242F9D370470040054088
:1012F00070B504000D00EFF3108672B61A4A136839
:10130000002BFCD0BFF35F8F002D1BD02000FFF718
:1013100049F9164981420AD02000FFF74BF9012113
:101320002000FFF70FF90123A340114A1360114B6E
:10133000A400E550BFF35F8F00220B4B1A6086F3C9
:10134000108870BD0B4BA200D5500122A2400A4963
:1013500020000B7893430B700449FFF735FA002106
:101360002000FFF7EFF8E5E7280100D0E9110010B1
:1013700038600540EC1C002019230020F0B54F46D2
:10138000D6464646C0B50700304C616A0D00A66AD5
:10139000616AA942FAD18B4208D805D001201CBC51
:1013A00090469946A246F0BDB242F7D9EFF31089B4
:1013B00072B6274801680029FCD0BFF35F8F012572
:1013C0002449BD408C460978204C0E002E438846A7
:1013D000F1B28A46614650460870391D1E488900A0
:1013E00065630A51B9000B50216A0020294219D0C7
:1013F000616A0800A66A616A8142FAD18B4219D8F3
:1014000001D1B24216D8C2451DD0104B1F201D621B
:101410005D6301230740BB40104A1E3813606346DA
:1014200042461A70BFF35F8F0022094B1A6089F39E
:101430001088B4E70020BFF35F8F0022044B1A60CE
:1014400089F31088ABE70120ECE7C0460040054077
:10145000280100D019230020EC22002080E200E0C7
:1014600010B5EFF3108472B60A490B68002BFCD05C
:10147000BFF35F8F01238340074A08481362027855
:101480009A430270BFF35F8F00230B6084F31088D0
:1014900010BDC046280100D000400540192300209F
:1014A00070B505000E001400002924D0002A24D0B5
:1014B00080686B689847296800280ED063001B1964
:1014C0007200033B9219CB18033A9E7088188A5C0D
:1014D000002A14D1047030000EE073009B196200E2
:1014E000033B1219CB18033A9C7088188A5C002AB7
:1014F00000D05A700670200070BD0800FCE75A70DA
:1015000004703000F8E7C04630B583600023CCB2E9
:1015100043730133047342608373C4730D00006826
:10152000012C06D9421C0133DBB2137003329C42FA
:10153000F9D1FF2129404B005918002340180338E6
:10154000437030BDF8B5CE46474606000C0080B566
:10155000002907D04D0003686D18033D5A195778CC
:10156000002F04D120000CBC90469946F8BD7900AC
:10157000C91903398846434459788946002159706E
:10158000517073683A0021008068984733680028DA
:1015900014D042469A18947059195B5D002B00D004
:1015A00053700F70270049463000FFF7CBFF39001A
:1015B00002003000FFF774FF0400D3E742464146C3
:1015C0005D19AF709A185B5C002B00D06B701470C3
:1015D000E9E7C046F0B557464546DE464E46E0B51B
:1015E0000D006B0001685B19DF1E0400C85D83B04D
:1015F0000192CA19002850D043001B18033BCB1896
:101600005E78B446002E1AD1019E002E42D0E67BB1
:10161000002E04D073009B19CB18033B5D70A37B95
:10162000002B00D1A573E57300282FD10023537040
:1016300003B03CBC90469946A246AB46F0BD720052
:101640006244033A89184A78904600224A709146CB
:101650005A70010032002000FFF722FF4346824605
:10166000002B07D05B0021684344033BCB185A781A
:10167000002A16D1424651462000FFF711FF21688B
:10168000019BCA19002BC2D10028CFD043001B18E0
:10169000033BCB1800219970C8E7019B002BB6D102
:1016A000C4E7500080180338091848788346484634
:1016B0004870587041462000FFF7F2FE59468046B8
:1016C0002000FFF73FFF414602002000FFF7E8FE41
:1016D0008046CFE7F0B54E464546DE465746E0B574
:1016E000467B040075000068AD19033D83B001918D
:1016F000415D4219002952D04B005B18033BC318CF
:101700005F78BC46002F1CD1019D002D44D0E57BA5
:10171000002D04D06B005B19C318033B5E70A37BE4
:10172000002B00D1A673E673002931D100233000CD
:101730005370617303B03CBC90469946A246AB46D9
:10174000F0BD7A006244033A801842789346002242
:10175000427091465A7020003A00FFF7A1FE5B46A6
:101760008046002B07D05B0021685B44033BCB180D
:101770005A78002A17D15A4641462000FFF790FEBA
:10178000019B010020684219002BC0D10029CDD057
:101790004B005B18033BC31800209870C6E7019B01
:1017A000002BB4D1C2E750008018033809184878DC
:1017B000824648464870587059462000FFF770FE30
:1017C00053468346002B07D05B0021685344033BFC
:1017D000CB185A78002A06D1594652462000FFF706
:1017E0005FFE8346C7E75000801803380918484653
:1017F0004F784870587051462000FFF751FE39006D
:1018000081462000FFF79EFE494602002000FFF7B8
:1018100047FE8246E0E7C04670B5040000292CD0A0
:10182000437B8B422ED005684800401803382818A7
:101830008278002A21D053009B18033BEA5CEE1803
:101840008A4202D11BE0002A08D053009B18033BB8
:10185000EB185A788A42F6D142785A700023012256
:10186000837043702000FFF7B5FE617B020020000B
:10187000FFF716FE6073012000E0002070BD437882
:101880003370EBE701221900FFF7A4FE607301201B
:10189000F4E7C046F8B5040006200D0000F0CAF9D0
:1018A000002845D02B4B2C49E3185A425341802243
:1018B000D20394465B421340284A63441360284A8B
:1018C000136018008A689043FBD1224B8021E318F3
:1018D0005A425341234A5B0049000620995200F0C6
:1018E000A9F92900C00000F073FBC30921D14027EA
:1018F0000122260080256262A36200232C36AD01FE
:1019000035432B60062000F095F93900800000F087
:101910005FFB6023E26A53406E221A4080235B0122
:1019200033431A60104B236310232B600D3BA364D9
:10193000F8BD0E4A934203D900230D4F0D4AD8E754
:101940007F221040013040089F011A003F18030019
:10195000CFE7C0460080FCBF00C0004000E0004070
:1019600000F000401C23002001030000FEFF0000E7
:10197000C0FF3F00FFFF000030B50C2083B000F037
:10198000B3F9FEF73BFD00280ED0944B944A1A6041
:101990005A609A60DA601A615A619A61DA611A6271
:1019A000904A5A6203B030BD8F4CA06700F0F0F946
:1019B00001228E4B1A60636C012BFCD103228C4BED
:1019C0001A60894A936B012BFCD101330121894AAA
:1019D00089480093043300F033F90523874A0093C4
:1019E0000121874800F02CF9864B5A68FF2A02D85B
:1019F000802252005A608022784C7D4B216912016E
:101A0000804D1A60002905D0606900F0E1FA0130CC
:101A10000138FDD1E0217B4B02201A681140802261
:101A200052012A43116019684840032101401160A6
:101A300004219A681142FCD08022802192012A431D
:101A400009011160802252005A606F4B23616F4B75
:101A50005968FF2900D85A6003226C48634B012162
:101A60001A60020093681942FCD0E02513681D40FB
:101A700080235B0103431D6012684A40032111402B
:101A800019600221614A93681942FCD080238021A9
:101A90009B0103430901196080215D4B490051609E
:101AA00063615C4B5A68FF2A00D8596080225A4B08
:101AB000E1691201574D1A60002905D0606900F0F4
:101AC00087FA01300138FDD1E02252490B681A40F3
:101AD00080235B012B431A60802380229B012B43D0
:101AE00012011A6080223E4B52004A60E3614B4B68
:101AF0005968FF2900D85A608022494B216A120197
:101B0000464D1A60002905D0606900F061FA013085
:101B10000138FDD1E02241490B681A4080235B0166
:101B20002B431A60802380229B012B4312011A60F1
:101B3000802380225B004B60294BD2022362394B09
:101B40005968914200D25A608022374B616A120173
:101B5000344D1A60002905D0606900F039FA01306F
:101B60000138FDD1E0222F490B681A4080235B0128
:101B70002B431A60802380229B012B4312011A60A1
:101B80008023DB024B60174B6362284B5A68FF2AA5
:101B900002D8802252005A608022254BA16912018E
:101BA000224D1A60002905D0606900F011FA013059
:101BB0000138FDD1E0221D490B681A4080235B01EA
:101BC0002B431A60802380229B012B4312011A6051
:101BD00080235B004B600E4BA361E3E6101E0020E8
:101BE000006CDC021BB70000008000403CB00040ED
:101BF00030B00040002F685900800240008C8647BA
:101C000000C0024030800040001BB7003C80004014
:101C1000405973075480004054B000406080004039
:101C200060B000406C8000406CB0004048800040D4
:101C300048B00040014B8000C0587047101E002083
:101C4000F8B504000C2017001D000E0000F0C0F9CC
:101C50004101091A8B01591AC90009188901380074
:101C600000F0B6F9069A2B04120313432268002AE7
:101C700021DB194AA21851424A41802149018C4670
:101C800052420A40154962440A6015490A601549E2
:101C900017008D68AF43FBD1C021221D890111437C
:101CA00021222660A0600A602268002AFCDAE36034
:101CB00008230B60F8BD3F2221680A40B242D8D108
:101CC000A2681205120D8242D3D1EE21E268C90248
:101CD0000A409A42CDD1EDE70040FDBF00E0004050
:101CE00000F0004000C000408023024A9B000343F4
:101CF000D36270470080054010B5140080221B4B52
:101D0000D2051A6000281AD00123194A1843194B2A
:101D1000DA61194A42401A62596298628022134B72
:101D2000D2051A601549164A1160E022D2041A60E1
:101D3000002C07D18022134B12061A6010BD0D4BE8
:101D4000D861EBE780236201121B92001219120185
:101D50005B049A4200D30C4A0C4B1A60054B5A6044
:101D60008022084BD2051A60E8E7C04600B0054063
:101D7000D3C007B0008005402D3FF84FFCFF0100A5
:101D80000820014000A00540FFFFFF00B422002012
:101D9000AA23064A1B0113602F230549D360054B74
:101DA00019605368002BFCDA7047C04600400240BF
:101DB00000B0FA00006002402C4B2D4A70B51A604A
:101DC0002C4A2D4B2D491A6010008B689843FBD18B
:101DD0002B4C2C4B9C4209D2013B1D1BAD080135FD
:101DE000AD002D1908CC9847AC42FBD1FFF7C4FDDC
:101DF000254A214B1A60214A9368DB018033FBD1CD
:101E00004022224B224C234D9A675A671A67DA66A2
:101E1000AC4208D223682000002B21D00834FEF702
:101E200043FEAC42F6D31C4C1C4DA168C0222800D6
:101E300000F0F0F9A560FEF75BFBFEF7F9FDFEF799
:101E4000EBFF174C174B9C4209D2013B1D1BAD0801
:101E50000135AD002D1908CC9847A542FBD170BDC6
:101E60000834FEF713FEAC42D4D3DCE700E00040B8
:101E7000BFCDFBFEFE7F3C0000F0004000C00040F4
:101E8000F817002008180020FFFFFF0100F00140B4
:101E9000F0170020F817002000ED00E000000020FF
:101EA000081800201018002000BEFDE7094A0300B2
:101EB0001068002805D00849C3188B4207D8136062
:101EC000704706480449C31810608B42F7D90120B7
:101ED0004042F5E7AC1E0020000004200826002048
:101EE00010B5FFF7E1FFC0460FB400B5084883B056
:101EF00000F0B6FA049B002B07D005A91800019149
:101F000000F018F8034800F0ABFA0120FFF7CCFF0F
:101F1000946A0010A46A001010B50148FFF7E4FFAE
:101F2000A86A001010B5002800D110BD00F04CFACE
:101F3000FBE7C04610B5094A0300146884B0002CC2
:101F400008D0012200910648524203A9A04701206F
:101F500004B010BD00F084FA0020F9E7B0220020A0
:101F6000251F001001480421014B1847200F0020B5
:101F7000951F0010142310B50100188804331B8826
:101F8000984710BD162310B50100188802331B882E
:101F9000984710BDF0B5C64600B5002916D01423E9
:101FA00004000125984618278900461843462168F1
:101FB00018883B88984701C4431E98414042054019
:101FC000A642F3D1280004BC9046F0BD0125F9E7F4
:101FD000114A936F9B0813D210665166002905D0F1
:101FE000FFE7FFE7FFE7516F106F704704B5002868
:101FF00001D00020C04304F0CFFC002104BDC04646
:10200000F0B5146E556E576F166FFFF7E5FF146647
:10201000556657671667F0BD000000D0132370B5F2
:102020001D78012D15D010DD2748FFF7ABFF274C99
:1020300001008022200000F0EDF8022D06D0244897
:10204000FFF798FF234B186070BD204C224AA26412
:10205000F5E72E001D4C204AA3085B421E401D429E
:102060002FD0330022602020B1006118801B0A604D
:102070004A608A60CA600A614A618A61CA610A620A
:102080004A628A62CA620A634A638A63CA630A64EA
:102090004A648A64CA640A654A658A65CA650A66CA
:1020A0004A668A66CA660A674A674008102803D1EA
:1020B0008A67CA67A264C2E71E339B00E250A2642B
:1020C000BDE70023CFE7C046534400002023002093
:1020D0004C330000DC220020DD20001007B56046F4
:1020E00001880A0A0230DF2AFAD1C9B2820804D371
:1020F000028840880004104300E00068014A505004
:10210000039007BD2023002051434343C9188C4648
:10211000110C83B24B4310B4040C614392B280B2F1
:10212000504362431C041B0C001910BC594113049A
:10213000120CC0185141614470470000132310B5C0
:1021400012481C78FFF71EFF0100012C0AD003DDA6
:1021500080220F4800F05EF80E48FFF70BFF0E4B91
:10216000186010BD0A4C5422200000F053F80B4BAD
:102170006365A365E36523666366A366E366236719
:102180006367A367E3672362E361E5E75346000003
:10219000202400204C330000DC220020A12100106C
:1021A00007B5604601880A0A0230DF2AFAD1C9B2AF
:1021B000820804D3028840880004104300E00068CD
:1021C000014A5050039007BD2024002010B50400A0
:1021D00003F05CFF002804D0034B04199C4200D894
:1021E00010BD0248FFF780FE00000420B46A001012
:1021F00010B503F055FF10BD01480421014B1847ED
:10220000300F0020951F0010014B1B68184700007D
:10221000300F0020014B5B6818470000300F002092
:10222000030010B508001B681100984710BDC04698
:10223000F8B54746CE4680B5437D07000D00160031
:10224000002B37D000240020002A1EDD4B1E9846AC
:102250001B4B9946002C2BD043461B5D0D3B5A422D
:102260005341DBB22A5D0A2A13D00134A642F1DCC5
:10227000864203DD311A3B6828189847AD19013DA5
:102280002B780D3B5A4253413B750CBC9046994606
:10229000F8BD002BE9D1A04203DA211A3B682818C7
:1022A0009847484602213B68013498472000DDE703
:1022B0003B7DD7E70368110028009847E5E7C04653
:1022C000246B0010F0B5DE4657464E464546E0B555
:1022D00085B017001C0006000D00FEF7EFFF00237D
:1022E000324A12184B41002B5BDB314908008A4609
:1022F00004F082FB01906B1C03D1300004F0BEF9A6
:102300000500002C28D12B4B98462B4B1C68002C29
:1023100015D0002F23D1294F02E02469002C0ED0C4
:102320002368002BF9D03B68002B01D0A342F4D1E5
:1023300020002A003100C0472469002CF0D1019B05
:10234000002B2AD1681E8541E8B205B03CBC9046FE
:102350009946A246AB46F0BD194B9846D5E7174BB8
:10236000994602ABDF1D0A239B4602E02469002C3C
:10237000E5D02368002BF9D04B461B68002B01D019
:10238000A342F3D12A0031002000C0475B4601225E
:10239000390020003B70C047E8E7504604F0ECFAF3
:1023A000D0E70122074B52429FE7C04640420F0050
:1023B000F017002031220010A01E0020A81E0020CF
:1023C00021220010FFFFFF7FF0B5CE46474680B5C3
:1023D00083B06B460500DE1D3070FEF76FFF0023F3
:1023E0001A4A12184B41002B2CDB19490800884669
:1023F00004F002FB174B07001C68002C16D0164B8C
:10240000994602E02469002C10D02368002BF9D0F3
:102410004B461B68002B01D0A342F3D120000122C0
:102420003100FFF705FF2469002CEED1002F05D104
:10243000280003B00CBC90469946F0BD404604F01D
:102440009BFAF5E70122054B5242CEE740420F00CE
:10245000F0170020A01E0020A81E0020FFFFFF7F15
:1024600070B5040004F00AF9002301000500012200
:102470002000FFF727FF084B1C68002C06D063687C
:10248000002B05D098472469002CF8D1280070BD96
:102490002469002CF3D1F9E7A01E00200A4A136832
:1024A000002B05D10CE01A001B691032002B07D05D
:1024B0009842F8D1002902D1036913600161704785
:1024C0000029FCD01060FAE7A01E002010B500F033
:1024D000C7F800F0C1FA012010BDC046F0B50D1ECE
:1024E00015DD0E4B0D271A680D4B4519D3185942AF
:1024F0004B410C495B005E5E20210478A64207D068
:1025000093691942FCD101301460A842F5D1F0BDA5
:1025100093691942FCD11760F2E7C046FC22002003
:102520000080FCBF1C23002030B50500002926DDFB
:10253000002010241B4B013D1A6893691C4219D1DD
:10254000013093691C42FCD113682B548142F4D1B1
:10255000154B1B68002B0CD050239363516B183B19
:1025600034320B401100802252010A4313600028CC
:1025700015D030BD0C4B1B68002BEDD1F7E70A4B93
:102580001B68002B0BD050223821064B1B689A6326
:102590005A6B3433114080225201134319600320D7
:1025A0004042E6E7FC220020FC1D0020064B10B54F
:1025B0001B68002B06D00021044A12689163044A6C
:1025C0001068984710BDC046FC1D0020FC2200206A
:1025D000041E00201D4BF0B51A68C64698461C4BD9
:1025E0000E00D31859424B411A4F14331C000500FA
:1025F00000B53B68002807D0002B11D0164B3D607A
:102600001E6004BC9046F0BD002BF7D09063002103
:102610002000FDF797FF20001049FEF7D5F8EDE701
:1026200020000E49FDF7C6FF01212000FDF78AFFBB
:102630004346502238211B689A635A6B3433114049
:102640008022520113431960D8E7C046FC220020C3
:102650000080FCBFFC1D0020041E0020AD250010E2
:1026600010B50C4B0C4C1B780C4B02211B780C4BFF
:1026700000202360FDF774FE02210120FDF770FEAB
:10268000E12120684902FFF705F901210548FFF71C
:1026900005FF10BD84990010FC22002088990010CD
:1026A00000400340400F00207047C0460022014B0D
:1026B0001A707047162300204B790020FF2B0BD196
:1026C0008B79002B08D1CB79012B05D1082A03D9AE
:1026D0008A78024B09301A707047C04616230020D2
:1026E0000120704770B5012909D115495379107936
:1026F00009781B0203430020994202D070BD0120DB
:10270000FCE75378012B08D0022BF7D1002064227C
:102710000021FFF7F1FA0120F0E79478D278050064
:1027200012021443D20502D5620A93401D000548E7
:10273000FFF720FC7F210300214028009847C04676
:102740001623002055420000012303700048704703
:10275000686B00104A780B7812021A438B7810B518
:102760001B041A43CB781B0613439622D2009342D4
:1027700000D010BD0348FFF7FDFB00210300080057
:102780009847C04655420000024B1860024B196042
:102790007047C046001E0020081E002010B5024BE6
:1027A0001878FDF7E1FE10BD17230020114B70B51E
:1027B0001A68002A1AD0EFF3108172B61068002848
:1027C000FCD0BFF35F8F00220B48596002701B687A
:1027D000BFF35F8F1A6081F3108800240025074B38
:1027E0001878FDF7C1FE2900200070BDFA240025ED
:1027F000A400F4E7BC2200201823002017230020A7
:1028000070B5040000200E0001F00EFB002835D04A
:10281000002001F021FB002830D0FEF74FFD0023FF
:10282000184A12184B41002B24DB174D280004F0E6
:10283000E3F8002822D0002001F0F6FA00280BD19E
:10284000012000210324404200F0D8FC644228000B
:1028500004F092F8200070BD002001F0FDFA00287D
:10286000EED021003200002001F002FB041EEED168
:10287000033CECE70122054B5242D6E703246442B5
:10288000E8E7C04640420F00E4220020FFFFFF7F40
:10289000F8B5DE46574680B505000C00FEF70EFD84
:1028A0000023364A12184B41002B5ADB34490800EA
:1028B0008A4604F0A1F8002803D10CBC92469B463E
:1028C000F8BD002001F0B0FA00284ED00026002C00
:1028D00043DD2C4B9B4614E0A919002001F03CFB82
:1028E000070001200021404200F088FC002001F098
:1028F000F7FAFEF7E3FC234BF61918605960B4426F
:102900002BDD002001F042FBA71B0200B84200DDD6
:102910003A00002AE0D101200021404200F06EFC84
:10292000002001F0DDFA002001F07EFA002814D02A
:10293000002001F02BFB0028E1D1FEF7BFFC5B4635
:102940000F001A685B68002184460F4812184B413B
:102950009F4202D8D3D19445D1D9504604F00CF807
:10296000ABE70122094B5242A0E700200021054BB2
:1029700018605960504603F0FFFF9EE740420F0089
:10298000E42200201019002020A10700FFFFFF7F94
:1029900010B5244C84B00021200004F005F8002874
:1029A0001CD1214B1A68002A16D0EFF3108172B6A1
:1029B00010680028FCD0BFF35F8F01241B485960CA
:1029C00002781B68D2B20470BFF35F8F00201860DA
:1029D00081F31088002A0AD004B010BD0120002124
:1029E000404200F00BFC200003F0C6FFF4E7FEF7C6
:1029F00049FA0400FEF762FCFA2200239200121842
:102A00004B41002B09DB0121029100210191084972
:102A100020000091FEF73AFADEE70122054B524210
:102A2000F1E7C046E4220020BC2200201823002049
:102A3000AD270010FFFFFF7F054B10B51868002879
:102A400004D0044B0022196801F052F810BDC046B2
:102A5000001E0020081E0020D02310B51B0684B0E5
:102A60001C68FEF70FFAFEF711FBA04202D000200F
:102A700004B010BD264B1B7801F09AFC2548FEF7E8
:102A800005F80120FDF7E6FFFF23234C23492070C2
:102A90001840FDF78FFD20780121FDF753FD05203B
:102AA000FDF76AFD002822D1FEF7ECF90400FEF7DD
:102AB00005FCFA220023920012184B41002B22DB66
:102AC0000121029100210191154920000091FEF79A
:102AD000DDF90822040000211248FFF795FB002CC5
:102AE000C5DB11480121FFF7D9FC0120C0E7002216
:102AF0000E490520FDF788FDFDF708FD0100094896
:102B0000FDF7EEFFEDE70122094B5242D8E7C04640
:102B10008C990010E4220020172300209129001036
:102B2000AD270010BC220020580F00209D27001068
:102B3000FFFFFF7F00487047206C0010004870477F
:102B4000CC6B001070B5040016480378002B20D021
:102B5000002C06D1C1241448144BA40043800480E7
:102B600070BD052C1CD8124B0F48A400E558811CE1
:102B7000002304E001330A800231132B0DD0EA5CFC
:102B8000DCB2002AF6D1C023013464009B001C4350
:102B9000E5E7112100F016F8DAE7CA24A400DEE721
:102BA0000020DDE700230020781E0020090400003B
:102BB000346C001010B5024800F0E2F810BDC046B9
:102BC000D422002030B54B1E012900D1B0E06B4A61
:102BD00011780D112C0030349F2900D9ABE004701E
:102BE000012B00D1C7E00F21147821400C003034B4
:102BF000092900DDA1E04470022B00D1BBE051782F
:102C00000D112C0030349F2900D999E08470032BDA
:102C100000D1B0E00F21547821400C003034092954
:102C200000DD8FE0C470042B00D1A4E091780D1179
:102C30002C0030349F2900D987E00471052B00D186
:102C400099E00F21947821400C003034092900DDEF
:102C50007DE04471062B00D18DE0D1780D112C0060
:102C600030349F2900D975E08471072B00D182E0B0
:102C70000F21D47821400C003034092900DD6BE0AD
:102C8000C471082B00D176E011790D112C0030347D
:102C90009F2964D80472092B00D16CE00F211479AC
:102CA00021400C00303409295BDC44720A2B62D0CD
:102CB00051790D112C0030349F2955D884720B2B7B
:102CC00059D00F21547921400C00303409294DDCB2
:102CD000C4720C2B4FD091790D112C0030349F29E8
:102CE00000D9073404730D2B45D00F21947921406E
:102CF0000C003034092901DD37310C0044730E2BF0
:102D000039D0D1790D112C0030349F2900D90734E6
:102D100084730F2B2FD0D1790F220A401100373145
:102D2000092A01DC30321100C173102B23D010307E
:102D30000023037030BD073451E737310C005AE7E8
:102D4000073463E737310C006CE7073475E7373138
:102D50000C007EE7073487E737310C0090E7073433
:102D600098E737310C00A0E70734A7E737310C00AC
:102D7000C4720C2BAFD1C018DAE7C046D4220020B1
:102D800030B5002589B004000922002101A8009572
:102D9000FFF73AFA0922002105A80495FFF734FA53
:102DA0004B236A466846137004A90D2203F0DCFD2C
:102DB0001521082220006944FFF72CFA09B030BD24
:102DC00010B501210520FDF7BDFB10BD10B5002297
:102DD0000021024800F05CF910BDC046D01E002062
:102DE0008022024B5202DA647047C0460020115024
:102DF000F0B5C64600B5060000F024F90C231C4DC2
:102E0000FF22AB6705201B49FDF7FEFB40239846D8
:102E1000194C402200212000FFF7F6F9414600231B
:102E20000127002221202183144967706380E27604
:102E3000A1600B6022545F306084404620870538D3
:102E40000F4922540F4A6360E160A262136063621B
:102E5000E16203F099FD80239B052F64EB649023CE
:102E6000094A3000EA50FFF7BBFF04BC9046F0BDB2
:102E7000000011501D050020B01E002084001050DD
:102E8000000110508000105010D001000B785B063C
:102E900002D14B78052B00D070478A78014B1A601D
:102EA000FAE7C04600001150F0B5C64600B5CC7830
:102EB00088780A794B797F21A40701401B02C50954
:102EC00013434F00A20F1400324E7A195201B21868
:102ED000907001206840507000205B055B0DD07041
:102EE0001383D4768046CA00012D33D02A48844605
:102EF000880162448446B444604682604046106063
:102F0000002933D0254AC9009046624641445160A9
:102F10003F223F339343022C00D15B0020487A19B3
:102F200001685201B218D1601E4ACB1803605140AB
:102F30005340802288465201934228D84346A40633
:102F40001C4380237F197F011B06F6191C437368FD
:102F50001C6011E014488446880162448446B444ED
:102F60006046826240461060002909D100236D014D
:102F7000761973600D4BF360012004BC9046F0BDE0
:102F8000084AC9009046624641445162C0E7FEF7D4
:102F9000C3FFD3E7B01E002084001050040010507F
:102FA000B822002000001050800010500001105086
:102FB00010B503F0E9FC10BD10B57F200C002040D7
:102FC0004000E409110000191A00034B4001C01829
:102FD00000F05EF8012010BDB01E00207F23180015
:102FE00010B508400B420BD0C909802240004018A0
:102FF0000649400140181201002103F015FD10BDE3
:103000000223034AC9095B1A9366EEE7B01E00204B
:10301000002011507F23180010B508400B4200D14A
:1030200010BD00234000C909411804484901401857
:1030300000220349C37003F0F7FCF1E7B01E002043
:10304000FFF7FFFF80220D4B520410B51A600C4BA6
:103050000C491A6010008B689843FBD10A4C9C22E3
:1030600000212000FFF7D0F88022002152010748FC
:10307000FFF7CAF80923636710BDC04600E00040AF
:1030800000F0004000C0004000001150000010504F
:1030900070B5837E04000D001600002B19D10023AB
:1030A0002100E3820133A682A3762561A01C1B3197
:1030B00003F082FC002804D080219023084A890272
:1030C000D150200003F090FC002805D00123237785
:1030D00070BD03F0A1FCE2E7200003F095FCF7E7E8
:1030E00000201150024B5878431E9841C0B27047DF
:1030F000901C0020024B18784007C00F7047C04654
:10310000901C0020034B1878FF38431E9841C0B232
:103110007047C046940F0020F8B5CE46474680B5AC
:103120002C4E050033780120FF2B03D00CBC9046B9
:103130009946F8BD532200212748FFF765F8274C30
:103140002000FDF7A3FC264B1C60264C2000143009
:10315000FDF7B8FC200001F0F1FB234B234F1C606E
:10316000234B9846002B04D03800FFF7EDFA214B93
:103170001860424600243B78002A23D01E4A90461D
:103180001C4A9146A34212D80FD1434698470134B6
:103190003B78E4B2A342F5D228003570FFF728FE51
:1031A0002800FFF70DFE0120C0E70020BEE74A46D9
:1031B0001268630094461B19DB006344002BF4D0B3
:1031C0001B68E3E700F0EEFE3B780020002BADD15A
:1031D000E2E7C046940F0020901C0020481C00200D
:1031E000E41C0020780F0020E81C002011230020A0
:1031F0004927001068190020A53F0010F0B5DE46F1
:1032000057464E464546E0B58DB001F0D7F8002848
:1032100000D10FE1CD4BCE4D9946CE4B09AC9B462C
:103220002E687269EFF3108172B61368002BFCD020
:10323000BFF35F8FB1613000210001F0C9F97269FD
:10324000B369BFF35F8F0021116083F310880028FA
:1032500000D1EFE06378082BE2D84A469B00D358B0
:103260009F466368002BDBD0A0689847D8E77F2291
:103270002179B84E0A405000CB093618F6183000B4
:1032800001273030C378BB43C370C3780337BB43D7
:10329000C370002A00D1F2E0AF4AF37C002A06D0C6
:1032A000AE4A1278934200D244E19B1ADBB2002B63
:1032B00000D0BFE0AA4E62792078A368B047AFE79C
:1032C0005B4601221B78012113435A4613703323B6
:1032D0005846D25C5E468A43C254C25C0420824394
:1032E000F2540133F25C8A43F254F25C8243F254AA
:1032F000237800209A4600F007FD602223791A40C7
:10330000602A0DD0402A00D1BFE0DB06DB0E012B86
:1033100000D137E1022B00D1D4E0002B00D1C3E073
:1033200020780021FFF75AFE80212078FFF756FE13
:1033300076E7884E3378DB0700D471E7894B002BA2
:1033400000D16DE700E000BF6AE7824E3378DB070B
:1033500000D465E7844B002B00D161E7307800078B
:10336000C00F00E000BF5BE77C4B7B4A984600261D
:1033700027781B78002A00D179E07C4A92469E4249
:103380005FD319D17A4B38009847434601361B78F2
:10339000F6B2B342F3D26F4E532200213000FEF753
:1033A00033FF1022FF21F01CFEF72EFF30002022F9
:1033B000FF211330FEF728FF00F09CFC6D4B002B23
:1033C00000D12DE700E000BF2AE7644B624A98462F
:1033D000002627781B78002A1FD0644A92469E4216
:1033E0003AD321D1624B38009847434601361B78C7
:1033F000F6B2B342F3D2574E532200213000FEF70B
:1034000003FF1022FF21F01CFEF7FEFE30002022F9
:10341000FF211330FEF7F8FE07E0380000F000FE51
:1034200043461B78002BE6D04A4E00F063FC23791C
:10343000B370F5E60DB03CBC90469946A246AB464B
:10344000F0BD52461268730094469B19DB0063443A
:10345000002BB1D05B6896E7524612687300944621
:103460009B19DB006344002BDED05B68BBE73800B0
:1034700000F0D6FD43461B78002B9DD18BE7627987
:103480002078A36800F054FCCAE63B48002800D12D
:1034900046E700F039FC012150460AAA00E000BFCF
:1034A000002800D0BCE63BE7202A00D19FE0002A9C
:1034B00000D035E76379092B00D931E72F4A9B000B
:1034C000D3589F467023217A0B4200D028E75846F4
:1034D0000F330B405B00CE09C0181F4F8019C07C12
:1034E000002F06D01D4F3F78B84200D2A1E0C01B8C
:1034F000C0B2002800D097E0002A00D048E1204F59
:103500000220627990468243012A00D143E142467B
:10351000002A00D004E75B449E193036F37808AAED
:103520009B07DB0F02321380504602230AA900F0EA
:1035300085FB75E65A00D3180C4ADB001268D318D5
:10354000002B00D176E71E69B5E6C046AC6C0010D2
:10355000E81C0020901C00204927001011230020A7
:10356000194200100000000000000000681900204F
:10357000214000100000000000000000D06C00108E
:10358000386D0010237A0F2B00D9C9E6AA4A5B4494
:10359000DB78002A05D0A94A127893425ED39B1AA1
:1035A000DBB2002B00D0BBE6A548A64E00F0ACFB7A
:1035B00001215046F3680AAA9847002800D02FE658
:1035C0006022160023791E401A4200D0A8E66379D3
:1035D0000A3B012B00D9A3E600F096FB63790A2B86
:1035E00000D120E150460AA900F010FB18E6237A2A
:1035F0000F2B00D994E6904A5B44DB78002A06D072
:103600008E4A1278934200D2E6E09B1ADBB2002B7E
:1036100000D085E68A488B4E00F076FB01215046AB
:10362000F3680AAA98473BE70027002A00D167E71A
:1036300076E647003818844FC0003F683F18002ADC
:1036400000D15DE7002F00D16AE6F86800F05CFB6E
:1036500001215046FB680AAA984721E77A4A5E0092
:10366000F3181668DB00F618002E00D158E6F06853
:103670009CE7A279029273789A4207D07378002B64
:1036800000D046E1029B002B00D0E9E05B46029AA5
:1036900050460AA95A7000F0B9FAC1E5737808AA31
:1036A00002321370504601230AA900F0C7FAB7E5A9
:1036B000E088030AC0B20F2B00D931E663499A00B3
:1036C0008A5897460AA800F025FB5046A179FFF7D3
:1036D0007DFB0222337813433370A1E5E388012B8D
:1036E00000D01DE60822337893435A46137079E7D9
:1036F0000220317808AB9A1C8B068908DB0F014049
:103700000B4310E7E388012B00D009E60822337849
:103710001343EAE74E4B002B00D101E600E000BF67
:10372000021E00D1FCE5D37891781B020B43504672
:103730000AA900F083FAB3E6464B002B00D1EFE56F
:1037400000E000BF021E00D1EAE5504613780AA946
:1037500000F074FAA4E62189FFF7F4F9021EF4D10F
:10376000DEE5022B00D112E13B4B002B00D1D7E567
:1037700000E000BF0200002A00D1D1E5D3E7FFF747
:10378000D9F9122302000AA9504600F057FA87E639
:103790002B482C4F5AE7E288002A08D142465B4466
:1037A0009E193036F378012A21D09B072ED5002FA1
:1037B00000D135E5F86800F0A7FAFB680AAA0121F4
:1037C00050469847002000F09FFA34235A46D35CB5
:1037D000DB0700D524E505E71B4A5E00F3181668F1
:1037E000DB00F618002E00D19AE5F06814E79B077D
:1037F000DDD51A4B1878FFF70DFC0222F3789343BE
:103800004246F370F3789343F370D0E7134B187884
:10381000FFF7E4FB0222F37813430122F370F378FD
:103820001343F370C3E708AB9A1C504601230AA95F
:10383000167000F003FAF3E449270010112300206A
:1038400035410010386D001068190020F86C001028
:10385000000000000000000000000000940F0020A5
:10386000581EC0B2FFF76AF9002800D158E5437826
:103870000693022B00D053E50121C2793026931123
:1038800052110B400A4012015B0113435A46127851
:103890000700B24313435A461370C37882781B0261
:1038A0001343C318093704930791049BBB4200D804
:1038B000ACE0079A7B7801920B2B03D1FB78019344
:1038C0003B78FF187B78042B00D029E50026049B69
:1038D000584ADB1B9BB20393574B05931B78B242AC
:1038E00063D0B846B34256D800D019E5534B544F75
:1038F00041465046039A9847082803D9039A8242C2
:1039000000D38AE0059B01361B78F6B2B342E9D2B8
:1039100006E55046FFF74CFBB378464A0193464B09
:10392000002698461B78002A0DD0464FB34225D872
:1039300020D1454B50469847434601361B78F6B296
:10394000B342F3D206E0504600F06AFB43461B78D0
:10395000002B0FD1532200215846FEF755FC5B4641
:103960001022FF21D81CFEF74FFC2022FF213748F0
:10397000FEF74AFC5B46019A9A7083E618233A6880
:10398000734394466344002BF4D05B68D2E7FFF79F
:10399000D5F80200EFE62B4B1F6818237343FF187E
:1039A000002F00D1BCE4BB68A2E7039B39001A00DA
:1039B0005046984600F04AFB082800D8B0E442463A
:1039C000824200D2ACE41E4B9846019B012B28D0CA
:1039D00000220AE0BB78D318DBB25B44D978FF2918
:1039E00000D09DE40132DE70D2B2019B9A42F1D147
:1039F0008046330002003900144800F063FD059B47
:103A000047441B78B34200D34FE789E4104B002BA7
:103A100000D13BE600E000BF38E63B004746984651
:103A2000D3E74246054B92689A42D1D1069B019357
:103A3000CEE7C04649270010112300204D4000105A
:103A4000386D00106819002021400010A31C0020D0
:103A500000000000F8B557464E46DE4645460C00CD
:103A6000E0B516001F00002A3CD0702398461E4B7C
:103A700000259B461D4B9A461AE05B461B782000AA
:103A800099465346997800F0E1FC00281CD02100AB
:103A90004846FFF709FA002816D0A378DA09012A68
:103AA00019D00A9A013513702378E418B54219DA4F
:103AB0006378052B08D1E3789B079B0FBB4203D1AA
:103AC0004246A3781A42D8D000203CBC9046994682
:103AD000A246AB46F8BD0B9A013513702378E41863
:103AE000B542E5DB0120F0E7940F0020901C002098
:103AF000002210B584B001AB019208325A700E4A10
:103B00009960146858606169EFF3108272B60868B2
:103B10000028FCD0BFF35F8F1900A261200000F0E5
:103B20001DFE6269A369BFF35F8F0021116083F3FB
:103B3000108804B010BDC046E81C0020702270B58B
:103B40008B780C001A4201D0002070BD064B20007B
:103B50001D78064B997800F079FC0028F4D02100FC
:103B60002800FFF7A1F9F0E7940F0020901C002037
:103B70000B007F2010B51840DB0940003333C31819
:103B8000034A04481168C01800F01CFC10BDC04670
:103B9000E41C0020901C00200B007F2010B5184072
:103BA000DB0940003333C318034A04481168C018C6
:103BB00000F030FC10BDC046E41C0020901C00202A
:103BC00070B57F240C4060000E4CCD092418641998
:103BD0003034E5780020ED0700D570BD0126E5788A
:103BE000094835430078E570FFF7E6F90028F4D17D
:103BF0000122E3789343E370E37803329343E37065
:103C0000EBE7C046901C0020940F002070B50A4ED0
:103C10000500082230000C00FEF7FCFA0021615676
:103C20000023C943C90F2800F3600022C901B36013
:103C3000FFF7C6FF70BDC046341C0020F8B5CE4665
:103C400047469046294E80B58146082230000D0037
:103C50001F00FEF7DFFA4346B3600023F381EC79DF
:103C6000AB7924021C43231CBC4200D93B1C9FB2ED
:103C7000B381002C12D0002F1ED04346002B32D02F
:103C80003B1C402F1ED89FB233787F2B1FD80021BA
:103C9000174A3B004846FFF793FF09E000216956A9
:103CA0000023C943C90F00224846C901FFF788FF16
:103CB0000CBC90469946F8BD33787F2B10D98021F3
:103CC0000022E6E740239FB233787F2BDFD9084CF0
:103CD0003A0041462000FEF79DFA80212200D8E7F5
:103CE00000210022D5E70020E2E7C046341C002076
:103CF000501C002010B5142200210248FEF784FA5F
:103D000010BDC046341C0020014B18617047C046EE
:103D1000341C002010B5054C010008222000FEF7DD
:103D200079FA0023A360E36010BDC046341C002074
:103D3000F8B53A4C1D0023780600DA09C9098A4211
:103D400013D00020002D00D0F8BD354B002B03D040
:103D500021003000FFF79AF82369002B43D022009E
:103D60000321300098470120EEE77F2B06D8A0689A
:103D7000002836D02A002B49FEF74CFAA368E289C6
:103D800059195219E38892B2E281A160934214D08A
:103D90003F2D12D9A589A81A071C80B240282ED819
:103DA0002378BFB27F2B2CD80021AA4234D01D4AE1
:103DB0003B003000FFF704FFC6E72369002B05D066
:103DC000220002213000984700280ED000216156C1
:103DD0000023C943C90F00223000C901FFF7F0FEDC
:103DE000B2E70020B0E70120AEE700213000FFF786
:103DF000F5F830008021FFF7F1F80120A4E7402713
:103E0000CEE7AA4207D0074C3A002000FEF702FA9C
:103E100080212200CCE780210022C9E7341C002049
:103E20008D2E0010501C002010B50400FFF75AF929
:103E3000002801D1002010BDFFF75CF90028F9D15E
:103E4000B220800044430348001903790120184040
:103E5000F1E7C0466C190020B2239B00584310B50F
:103E6000024B1030C01800F07FFB10BD6C19002011
:103E7000F0B5B225AD0045432C00C646174F1034AF
:103E8000E41900B5200092B200F0F0FB060020001B
:103E900000F088FB3F2803D8300004BC9046F0BDFA
:103EA0007B190020D9789846FFF762FE0028F3D0EE
:103EB000200000F077FB3F280AD992239B00EA18E4
:103EC0004346D219D97800204023FFF779FEE3E773
:103ED00043460020D978FFF75FFEDDE76C1900202C
:103EE000F8B50400FFF7FEF8002801D10020F8BD66
:103EF000FFF700F90028F9D1B220800044432500E3
:103F0000144E2435AD19280000F02EFB0028EDD00A
:103F100037190020B978FFF72BFE0028E6D0A2233E
:103F20009B009C466444A41921002800402200F014
:103F30009DFBB978051E08D0030022000020FFF782
:103F40003FFE0028D2D02800D1E70020FFF724FE52
:103F5000CCE7C0466C19002070B5B224A4004443DD
:103F6000094B2434E418050092B2200000F03AFC1A
:103F70000600200000F0F8FA3F2801D8300070BD9C
:103F80002800FFF7ADFFF9E76C190020B2239B0072
:103F9000584310B5024B2430C01800F003FB10BD8D
:103FA0006C190020B222F0B51B4C83B00021200018
:103FB0009200FEF729F9FF236371184B8026002534
:103FC000E3800127082321002000760023733200BC
:103FD0002781658138310095073B103000F08CFA5D
:103FE0002100200039313200FF31012300972430B5
:103FF00000F082FA8E239B00E6183000FCF746FDA5
:1040000090239B002662E6183000E561FCF73EFD38
:104010002663656303B0F0BD6C19002000C2FFFF8A
:1040200010B5094C052200212000FEF7EDF8200014
:104030002434103000F082FC200000F07FFC0121CD
:10404000200000F09BFC10BD6C190020F0B54B79EE
:10405000060083B0022B02D18B79022B03D00025FE
:10406000280003B0F0BD304FBB78002BF7D18B7820
:1040700009253B700C780C196378242B0BD1082A86
:1040800002D80FE0AA420DD32378E418ED18637824
:10409000ADB2242BF6D0052B21D0042B02D16379AD
:1040A0000A2B2FD0214C200000F07CFA3F28D7D9D2
:1040B0002600103E0020F178FFF75AFD0028CFD0EF
:1040C000200000F06FFA3F2817D98E239B00E218DA
:1040D000F93BF178FF3B0020FFF772FDC0E72100BC
:1040E0003000FFF72BFD0028B9D0A3787B70237830
:1040F000ED18E4186378ADB2CFE7F1780020FFF750
:104100004BFDADE70A4B2778019301330093022260
:1041100002233000E119FFF79DFC00289FD00E35E7
:10412000ED19ADB2BEE7C0466C1900207C19002025
:104130006E190020F8B560231400127805001340B2
:104140000020202B12D12F4E6379277932781B0261
:104150003B439A420AD16378222B27D007D8202BE1
:1041600017D0212B02D101293ED00120F8BD232BED
:10417000FCD1012940D00329F7D1234B002BF4D0E7
:10418000E178A37809020020194300E000BF012074
:10419000ECE7012928D00329E7D11C4B002BE4D000
:1041A0000020B11DFEF7D6FA0120DFE7012923D058
:1041B0000329DAD101252F003000A378E4780239F1
:1041C00024021C43274034717940243000F0D6FB90
:1041D0000F4B002BC9D02A00640800203900224070
:1041E00000E000BF0120C1E7072321002800094AA1
:1041F000FFF724FD0120B9E721002800FFF706FDA5
:104200000120B3E76C1900200000000055270010C2
:104210000000000072190020F8B557464E4645468A
:10422000DE46E0B55D4F8046FA780C001E008A42FB
:1042300065D19AB292239B00FD1810239946B94488
:104240002900484600F0CEFA554B002B19D07B7957
:10425000FF2B16D0002E14D0AA199246BB4603E0BD
:10426000013555450DD07B792A789A42F8D14846D8
:1042700000F090F90028F3D15B46597900E000BFC7
:10428000EEE7484B002B05D0484600F083F90028A4
:1042900000D176E0484600F085F93F2858D84A46D4
:1042A000103A93789C4207D0012420003CBC9046F1
:1042B0009946A246AB46F8BD3B4B002B02D00020EE
:1042C00000E000BFFEF70EFF00281DD1374C200094
:1042D00000F04AF90028E7D1002EE5D0B306E3D17B
:1042E000243CA1784046FFF743FC2500041EDBD0A8
:1042F000002300224046A978FFF762FCD5E7BB788F
:104300008B42D9D00024D0E7FEF7F4FE274C0028DA
:10431000DDD1200000F028F90028D8D02500243D68
:104320000020A978FFF724FC0028D0D099239B0017
:10433000E71839004022200000F098F9A978031E00
:1043400028D03A000020FFF73BFC0028ACD1BEE7A4
:104350004D46103D0020E978FFF70AFC002801D106
:10436000AB789FE7484600F01DF93F280CD98E2214
:10437000920040230020E9784A44FFF721FCAB7803
:1043800090E7FEF759FB85E70020E978FFF704FC8A
:10439000AB7887E70020FFF7FFFB98E76C19002058
:1043A00000000000392A00100000000090190020D1
:1043B00010B50020FEF7B0FE10BDC04610B5FEF7E8
:1043C000A1FE10BD037870B5DB0704000E00DD0F01
:1043D000002B17D103785B0701D5280070BD0121A0
:1043E0003000494202F0F0FA2378DB07DD0F002BA2
:1043F0000AD123785B0708D40422237801251343CC
:10440000237002E00025E8E70025300002F0B4FA4E
:10441000E3E7C04670B50D000121040049422800C1
:1044200002F0D2FA23785B07DE0F002B04DB2800B2
:1044300002F0A2FA300070BD2378DB0704D4042216
:10444000237893432370F2E70026F0E7437902795B
:104450001B0213435B055A0DC3789B079B0F022B6E
:1044600005D0032B15D00020012B08D0704702295E
:104470001CD00020402393424041C0B2F6E70239ED
:104480004B4259410D4B9C46614491424041C0B260
:10449000ECE702394B425941F023002049429B008E
:1044A0001940403191424041C0B2DFE7044B9C4685
:1044B000624450425041C0B2D8E7C046FF030000FA
:1044C00000FEFFFF8A1870B5914207D27F264C7814
:1044D000052C04D00C7809198A42F8D870BD340034
:1044E0008D782C4064000419ED0963550C78091986
:1044F0008A42ECD8F2E7C046F0B5C64600B50400E3
:1045000006A805788020884617001E000002824217
:1045100027D8E068002803D00121494202F054FA6C
:104520002069002803D00121494202F04DFA434698
:10453000236073045B0CED031D430023E06863817B
:10454000A780E5802381002801D002F015FA2069B8
:104550000124002801D002F00FFA200004BC90468C
:10456000F0BD0024F9E7C04610B50489418982886E
:10457000A3B288B28C4207D31B1A9BB2101C9A427A
:1045800000D9181C80B210BD5100091A5B189BB2EB
:10459000F4E7C04603894089181A43425841C0B223
:1045A0007047C04630B5048941898288A3B28DB274
:1045B0008C4207D35B1B9BB200209A4201D9D31ACD
:1045C00098B230BD5000401B1B189BB2F4E7C046A8
:1045D00070B5040000690D00002803D00121494294
:1045E00002F0F2F926896289A088B1B293B29642AC
:1045F00033D3CA1A92B2002A28D0904208D28142FC
:1046000030D30B1A9BB26381984203D81B1A9BB21A
:104610009842FBD9E28821685204520C5343280087
:10462000C918FDF7F7FD618901254B1C9BB2A088D5
:1046300099420ED9002340001B1A9BB22069638166
:10464000002801D002F098F9280070BD0025638988
:104650009BB240008342F1DBEEE74200D21A8A1897
:1046600092B2C8E709188BB26381CDE7F0B54F4627
:104670004646D6460400006989469046C0B50028E3
:1046800003D00121494202F09FF921896389A7885B
:104690008AB29DB2994249D3561BB6B2002E4BD076
:1046A000B74205D2BA4255D2D21995B23E006581C1
:1046B0004346B0454CD89EB2AF4203D8ED1BADB2D5
:1046C000AF42FBD9E288781B5204530C190098467C
:1046D000236869439C4680B26144864232D943468E
:1046E000584383B21A0048469A46FDF793FD434665
:1046F0004846F71BED195D4321685044AAB2FDF707
:1047000089FD6189A7888B199BB27A00994215D9D6
:104710009B1A9BB220696381002801D002F02CF91A
:1047200030001CBC90469946A246F0BD7E00761B28
:104730009619B6B2002EB3D163899BB27A00934228
:10474000E8DBE5E7424648467243FDF763FDD8E7FC
:10475000331CB0E7D51BADB2A8E7C046F8B50400DE
:10476000C0680E00002803D00121494202F02CF954
:10477000258920896189A288ADB283B28FB288422F
:1047800028D3DB1B9BB29A4209D8E779FF0906D1EF
:10479000E068002801D002F0EFF83800F8BD2B00E7
:1047A000954203D39B1A9BB29342FBD2E2882168C5
:1047B0005204520C5343C8183100FDF72BFDA28858
:1047C0006B1C9BB252009D4209D99B1A9BB20127D8
:1047D0002381DDE75100C91B5B189BB2D3E79342ED
:1047E000F5DBF2E7F0B54546DE4657464E46E0B506
:1047F00004008846150083B0002A6AD0C0680028EB
:1048000003D00121494202F0DFF82789E279638968
:10481000A688BFB29BB2D20943D19F4263D2720035
:10482000D31AFB189BB2002291469E4233D9F31A49
:104830001A1C9BB2AB4200D92A1C93B299464B4634
:10484000002B28D0DB199BB29B463D00B74203D317
:10485000AD1BADB2B542FBD2E288711B5204530CC2
:1048600018009A46236868439C4689B260444945CB
:1048700045D352464B4641465A43FDF7CBFCA388ED
:104880005B00BB4501D39B4503DB5A46D31A9BB261
:104890009B465B462381E06800281CD002F06CF840
:1048A00019E0B54222D29F423ED3FA1A92B2710069
:1048B00052198A4208DB9A1992B2571BBFB293462B
:1048C000BB4236D97F1ABFB2EB199BB29B46A946B1
:1048D000BBE700239946484603B03CBC9046994646
:1048E000A246AB46F0BDFB1A9BB29CE7AA1BE5882B
:1048F0001F006D046D0C5543B146A8449FE7534615
:1049000059438BB21A0041460193FDF783FC494697
:104910008A1B5146AA184A43019B20684344190048
:1049200092B2FDF777FCAAE77100CA1ABA1892B2E0
:10493000BEE7A946B94200DD87E7C3E710B504002A
:10494000C068002803D00121494202F03DF82069E7
:10495000002803D00121494202F036F80023E06824
:1049600063812381002801D002F006F82069002825
:1049700001D002F001F8012010BDC04670B504005E
:10498000C0680D00002803D00121494202F01CF844
:104990002069002803D00121494202F015F87F2147
:1049A000E379ED011940E0682943E171002801D065
:1049B00001F0E2FF2069002801D001F0DDFF0120B5
:1049C00070BDC046F8B557468246374B45465344FE
:1049D0005A425341802292029446DE464E465B4242
:1049E000324A1B046344E0B51360314A88463149BA
:1049F00013601D008A689543FBD10620FDF71AF964
:104A00004346414681468020DF0D5E028A029B0DAF
:104A10000221400005E0914507D392197B41814274
:104A20003DD00C000231002BF5D0802627023F1B21
:104A3000760002E03F1B012E33D039004846B346D2
:104A4000013EFDF7C5FA8045F4D25946614335026F
:104A500053461C611B6852465D40FF231B021D40EC
:104A6000802307205B0113431D6012685040CF2252
:104A700002401A605246802303209B0124321A43CD
:104A800010605246101D1843022303604846FDF78C
:104A90009FFA3CBC90469946A246AB46F8BD0C0036
:104AA000C3E72100D4E7C0460040FCBF00E000405F
:104AB00000F0004000C00040F8B5DE4657464E46C4
:104AC00045468346E0B505200C00FDF7B3F8060027
:104AD000600821008019FDF77BFA43009846804466
:104AE000070005214046FDF773FA3B1A9A46204B12
:104AF0008146700080199C4234D81E49FDF768FA3F
:104B0000451C5B461C680023E3662268043353405F
:104B100006221A4080235B0123431A605346E36157
:104B20004B462362434601204F2B03D95021404678
:104B3000FDF74EFAA0232200E0508023E06F7C3284
:104B400045402D045B0113432D0C1D6001233900EA
:104B50003000E366FDF73CFA3CBC90469946A2461D
:104B6000AB46F8BD0449FDF733FA451CC9E7C0461A
:104B70003F420F008096980040787D01104A70B542
:104B8000821A53425A41072352429A430D4B103224
:104B90001A600D4B0D4C1A601500A3689D432B1E27
:104BA000FAD166240268FF340571D5661460633C4F
:104BB0008833FF3CD5639563D450FFF77DFF70BD0C
:104BC000980F002000E0004000F0004000C00040CE
:104BD000F0B5642093B001F0B3F93E48FDF740FC16
:104BE00001F0B2F9071E03D00120404213B0F0BD1E
:104BF000394B0DAA19680AAD0D919988374E9180ED
:104C00009B7903A9937164232A00AB606B600B004E
:104C100013CA13C313CA13C3126831481A60FDF7CD
:104C20001FFC002000F06AF8300000F02DFD2D4838
:104C3000FDF7CCFA041E46D02B4B5A881988002366
:104C4000009600F0E9FF412001F018F8300001F073
:104C50004BF8002001F002F8300001F045F823483D
:104C6000FDF7FEFB06A9280001F000FD2A006021E7
:104C70001F4B01200197009601F0A2F8200000F0E0
:104C8000EBFDFA20800001F05BF9300001F02CF818
:104C9000200000F0E1FD0A2001F052F9300000F0A0
:104CA000F3FC2023012200211248009301F0DAF8DE
:104CB000200000F0D1FDFA20800001F041F9200031
:104CC000FDF796FAFBE70C48FDF7CAFB0020FDF75D
:104CD00007F9C046506D0010646D0010FFFF000022
:104CE0006C6D001080A20000E0250020AC6D00106B
:104CF000A80F0020B86D0010846D001010B50400DE
:104D00005A2001F0A3F901210C2001F0F7F86420EA
:104D100001F016F900210C2001F0F0F8642001F0F8
:104D20000FF901210C2001F0E9F8642001F008F9E5
:104D3000044B1C71002C01D100F0A1FC8221A022A7
:104D4000002401E0E02500201980082000215A807D
:104D500001F0D4F80021092001F0D0F8362001F04C
:104D6000D7F80121092001F0C9F80121082001F03C
:104D7000C5F80021092001F0C1F8200001F0C8F8B1
:104D80000121092001F0BAF80021082001F0B6F84D
:104D90000021092001F0B2F83A2001F0B9F8012110
:104DA000092001F0ABF80121082001F0A7F800214B
:104DB000092001F0A3F8052001F0AAF8012109203B
:104DC00001F09CF80021082001F098F8002109204A
:104DD00001F094F8B12001F09BF80121092001F0C5
:104DE0008DF80121082001F089F80021092001F047
:104DF00085F8012001F08CF80121092001F07EF8EE
:104E00000121082001F07AF80021092001F076F84C
:104E10002C2001F07DF80121092001F06FF801211B
:104E2000082001F06BF80021092001F067F82D201F
:104E300001F06EF80121092001F060F8002108203E
:104E400001F05CF80021092001F058F8B22001F0CF
:104E50005FF80121092001F051F80121082001F03B
:104E60004DF80021092001F049F8012001F050F827
:104E70000121092001F042F80121082001F03EF84B
:104E80000021092001F03AF82C2001F041F801211D
:104E9000092001F033F80121082001F02FF800214A
:104EA000092001F02BF82D2001F032F80121092012
:104EB00001F024F80021082001F020F80021092049
:104EC00001F01CF8B32001F023F80121092001F0C2
:104ED00015F80121082001F011F80021092001F046
:104EE0000DF8012001F014F80121092001F006F865
:104EF0000121082001F002F80021092000F0FEFF46
:104F00002C2001F005F80121092000F0F7FF012114
:104F1000082000F0F3FF0021092000F0EFFF2D2012
:104F200000F0F6FF0121092000F0E8FF0121082030
:104F300000F0E4FF0021092000F0E0FF012000F074
:104F4000E7FF0121092000F0D9FF0121082000F02E
:104F5000D5FF0021092000F0D1FF2C2000F0D8FF60
:104F60000121092000F0CAFF0121082000F0C6FF3E
:104F70000021092000F0C2FF2D2000F0C9FF01210F
:104F8000092000F0BBFF0021082000F0B7FF00213E
:104F9000092000F0B3FFB42000F0BAFF012109207E
:104FA00000F0ACFF0121082000F0A8FF002109203B
:104FB00000F0A4FF072000F0ABFF0121092000F062
:104FC0009DFF0021082000F099FF0021092000F03A
:104FD00095FFC02000F09CFF0121092000F08EFF0A
:104FE0000121082000F08AFF0021092000F086FF3F
:104FF000A22000F08DFF0121092000F07FFF012198
:10500000082000F07BFF0021092000F077FF02203C
:1050100000F07EFF0121092000F070FF012108202F
:1050200000F06CFF0021092000F068FF842000F0F0
:105030006FFF0121092000F061FF0021082000F02E
:105040005DFF0021092000F059FFC12000F060FF42
:105050000121092000F052FF0121082000F04EFF3D
:105060000021092000F04AFFC52000F051FF012176
:10507000092000F043FF0021082000F03FFF00213D
:10508000092000F03BFFC22000F042FF012109206F
:1050900000F034FF0121082000F030FF002109203A
:1050A00000F02CFF0A2000F033FF0121092000F05E
:1050B00025FF0121082000F021FF0021092000F038
:1050C0001DFF002000F024FF0121092000F016FF41
:1050D0000021082000F012FF0021092000F00EFF3F
:1050E000C32000F015FF0121092000F007FF012176
:1050F000082000F003FF0021092000F0FFFE8A20B5
:1051000000F006FF0121092000F0F8FE012108202F
:1051100000F0F4FE0021092000F0F0FE2A2000F04B
:10512000F7FE0121092000F0E9FE0021082000F02F
:10513000E5FE0021092000F0E1FEC42000F0E8FEB9
:105140000121092000F0DAFE0121082000F0D6FE3E
:105150000021092000F0D2FE8A2000F0D9FE0121B2
:10516000092000F0CBFE0121082000F0C7FE00213D
:10517000092000F0C3FEEE2000F0CAFE0121092044
:1051800000F0BCFE0021082000F0B8FE002109203C
:1051900000F0B4FEC52000F0BBFE0121092000F0A4
:1051A000ADFE0121082000F0A9FE0021092000F039
:1051B000A5FE0E2000F0ACFE0121092000F09EFEAD
:1051C0000021082000F09AFE0021092000F096FE40
:1051D000E02000F09DFE0121092000F08FFE01215A
:1051E000082000F08BFE0021092000F087FE0F2030
:1051F00000F08EFE0121092000F080FE0121082030
:1052000000F07CFE0021092000F078FE1A2000F05A
:105210007FFE0121092000F071FE0121082000F02D
:105220006DFE0021092000F069FE0F2000F070FEE5
:105230000121092000F062FE0121082000F05EFE3D
:105240000021092000F05AFE182000F061FE012123
:10525000092000F053FE0121082000F04FFE00213C
:10526000092000F04BFE2F2000F052FE0121092002
:1052700000F044FE0121082000F040FE002109203A
:1052800000F03CFE282000F043FE0121092000F040
:1052900035FE0121082000F031FE0021092000F038
:1052A0002DFE202000F034FE0121092000F026FE12
:1052B0000121082000F022FE0021092000F01EFE3E
:1052C000222000F025FE0121092000F017FE012117
:1052D000082000F013FE0021092000F00FFE1F201F
:1052E00000F016FE0121092000F008FE012108202F
:1052F00000F004FE0021092000F000FE1B2000F059
:1053000007FE0121092000F0F9FD0121082000F02D
:10531000F5FD0021092000F0F1FD232000F0F8FD4B
:105320000121092000F0EAFD0121082000F0E6FD3E
:105330000021092000F0E2FD372000F0E9FD012105
:10534000092000F0DBFD0121082000F0D7FD00213D
:10535000092000F0D3FD002000F0DAFD0121092032
:1053600000F0CCFD0121082000F0C8FD002109203B
:1053700000F0C4FD072000F0CBFD0121092000F062
:10538000BDFD0121082000F0B9FD0021092000F039
:10539000B5FD022000F0BCFD0121092000F0AEFDAA
:1053A0000121082000F0AAFD0021092000F0A6FD3F
:1053B000102000F0ADFD0121092000F09FFD00212B
:1053C000082000F09BFD0021092000F097FDE1205E
:1053D00000F09EFD0121092000F090FD0121082030
:1053E00000F08CFD0021092000F088FD0F2000F066
:1053F0008FFD0121092000F081FD0121082000F02E
:105400007DFD0021092000F079FD1B2000F080FDCA
:105410000121092000F072FD0121082000F06EFD3D
:105420000021092000F06AFD0F2000F071FD01212C
:10543000092000F063FD0121082000F05FFD00213C
:10544000092000F05BFD172000F062FD012109201A
:1054500000F054FD0121082000F050FD002109203A
:1054600000F04CFD332000F053FD0121092000F035
:1054700045FD0121082000F041FD0021092000F038
:105480003DFD2C2000F044FD0121092000F036FDF7
:105490000121082000F032FD0021092000F02EFD3E
:1054A000292000F035FD0121092000F027FD012110
:1054B000082000F023FD0021092000F01FFD2E2010
:1054C00000F026FD0121092000F018FD012108202F
:1054D00000F014FD0021092000F010FD302000F044
:1054E00017FD0121092000F009FD0121082000F02D
:1054F00005FD0021092000F001FD302000F008FD2D
:105500000121092000F0FAFC0121082000F0F6FC3E
:105510000021092000F0F2FC392000F0F9FC012103
:10552000092000F0EBFC0121082000F0E7FC00213D
:10553000092000F0E3FC3F2000F0EAFC01210920F3
:1055400000F0DCFC0121082000F0D8FC002109203B
:1055500000F0D4FC002000F0DBFC0121092000F069
:10556000CDFC0121082000F0C9FC0021092000F039
:10557000C5FC072000F0CCFC0121092000F0BEFC96
:105580000121082000F0BAFC0021092000F0B6FC3F
:10559000032000F0BDFC0121092000F0AFFC012137
:1055A000082000F0ABFC0021092000F0A7FC10202F
:1055B00000F0AEFC0121092000F0A0FC0021082031
:1055C00000F09CFC0021092000F098FCF02000F085
:1055D0009FFC0121092000F091FC0121082000F02E
:1055E0008DFC0021092000F089FC012000F090FCD6
:1055F0000121092000F082FC0021082000F07EFC3F
:105600000021092000F07AFCF62000F081FC012145
:10561000092000F073FC0121082000F06FFC00213C
:10562000092000F06BFC002000F072FC0121092031
:1056300000F064FC0021082000F060FC002109203B
:1056400000F05CFC112000F063FC0121092000F057
:1056500055FC782000F074FC0021082000F04EFC7E
:105660000021092000F04AFC292000F051FC012112
:10567000092000F043FC782000F062FC10BDA0215E
:1056800082227024FFF760FBF0B5C64600B5714D6D
:105690006A466B882C881900614398464B00073393
:1056A000DB08DB00D31A00AF9D4640BA6E460022ED
:1056B000002380B2002906D0013352009BB29053E0
:1056C0001A008B42F8DB0021082000F017FC0021B3
:1056D000092000F013FC2A2000F01AFC0121092007
:1056E00000F00CFC0121082000F008FC002109203A
:1056F00000F004FC002000F00BFC0121092000F068
:10570000FDFB0121082000F0F9FB0021092000F039
:10571000F5FB012000F0FCFB0121092000F0EEFB6D
:105720000121082000F0EAFB0021092000F0E6FB3F
:10573000002000F0EDFB0121092000F0DFFB01213A
:10574000082000F0DBFB0021092000F0D7FBE0B2CD
:1057500000F0DEFB0121092000F0D0FB0021082031
:1057600000F0CCFB0021092000F0C8FB2B2000F04A
:10577000CFFB0121092000F0C1FB0121082000F02E
:10578000BDFB0021092000F0B9FB002000F0C0FBA8
:105790000121092000F0B2FB0121082000F0AEFB3E
:1057A0000021092000F0AAFB012000F0B1FB01213B
:1057B000092000F0A3FB0121082000F09FFB00213D
:1057C000092000F09BFB002000F0A2FB0121092032
:1057D00000F094FB0121082000F090FB002109203B
:1057E00000F08CFB4346D8B200F092FB0121092067
:1057F00000F084FB0021082000F080FB002109203C
:1058000000F07CFB2C2000F083FB0121092000F03C
:1058100075FB0121082000F071FB0021092000F038
:105820006DFB6B880024002B0BD02888410060435F
:105830004000301800F07AFB01346B88A4B2A34218
:10584000F3D80121092000F059FBBD4604BC904665
:10585000F0BDC046E0250020F8B56A4D00210600E5
:1058600008202F886C8800F049FB0021092000F0F7
:1058700045FB2A2000F04CFB0121092000F03EFBF3
:105880000121082000F03AFB0021092000F036FB3E
:10589000002000F03DFB0121092000F02FFB012139
:1058A000082000F02BFB0021092000F027FB01203D
:1058B00000F02EFB0121092000F020FB012108202F
:1058C00000F01CFB0021092000F018FB002000F074
:1058D0001FFB0121092000F011FB0121082000F02D
:1058E0000DFB0021092000F009FBF8B200F010FBCD
:1058F0000121092000F002FB0021082000F0FEFA3F
:105900000021092000F0FAFA2B2000F001FB012110
:10591000092000F0F3FA0121082000F0EFFA00213D
:10592000092000F0EBFA002000F0F2FA0121092032
:1059300000F0E4FA0121082000F0E0FA002109203B
:1059400000F0DCFA012000F0E3FA0121092000F068
:10595000D5FA0121082000F0D1FA0021092000F039
:10596000CDFA002000F0D4FA0121092000F0C6FA97
:105970000121082000F0C2FA0021092000F0BEFA3F
:10598000E0B200F0C5FA0121092000F0B7FA0021C9
:10599000082000F0B3FA0021092000F0AFFA2C2013
:1059A00000F0B6FA0121092000F0A8FA0121082030
:1059B00000F0A4FA0021092000F0A0FA6B88002B67
:1059C0000CD000242888410060434000301800F0CB
:1059D000ADFA01346B88A4B2A342F3D801210920A7
:1059E00000F08CFA0021082000F088FA002109203C
:1059F00000F084FA292000F08BFA0121092000F040
:105A00007DFAF8BDE025002070B5494CE389B42B40
:105A100052D022D8002B06D05A2B1DD12389013B0E
:105A20005B1A010098B2238A022B22D0022B28D8BD
:105A3000002B22D023895D1E281A80B283420BD30B
:105A400063898B4208D3E38A022B27D0042B3CD0F6
:105A5000102B58D0412B4BD070BD87256D00AB4229
:105A6000FAD16389013B1B1A080099B2238A022BE1
:105A7000DCD16389013B591A89B223898342DFD281
:105A8000EAE7032BE8D123895D1E281A658980B2D5
:105A9000013D691A89B28342D2D2DDE7638A226866
:105AA0005943C3089BB2C9180723184079330341EF
:105AB000505C03435354CFE72389013B181A638991
:105AC00080B2013B591A89B2ADE7638AC0265943B7
:105AD00083089BB2C9180323184040001A400641AE
